{"abi":[{"type":"constructor","inputs":[{"name":"name","type":"string","internalType":"string"},{"name":"symbol","type":"string","internalType":"string"},{"name":"_paymentToken","type":"address","internalType":"address"},{"name":"_sablier","type":"address","internalType":"address"},{"name":"_fullPrice","type":"uint256","internalType":"uint256"},{"name":"_discountedPrice","type":"uint256","internalType":"uint256"}],"stateMutability":"nonpayable"},{"type":"function","name":"approve","inputs":[{"name":"to","type":"address","internalType":"address"},{"name":"tokenId","type":"uint256","internalType":"uint256"}],"outputs":[],"stateMutability":"nonpayable"},{"type":"function","name":"balanceOf","inputs":[{"name":"owner","type":"address","internalType":"address"}],"outputs":[{"name":"","type":"uint256","internalType":"uint256"}],"stateMutability":"view"},{"type":"function","name":"createVestingStream","inputs":[],"outputs":[],"stateMutability":"nonpayable"},{"type":"function","name":"currentPhase","inputs":[],"outputs":[{"name":"","type":"uint8","internalType":"enum MultiUtilityNFT.MintPhase"}],"stateMutability":"view"},{"type":"function","name":"discountedPrice","inputs":[],"outputs":[{"name":"","type":"uint256","internalType":"uint256"}],"stateMutability":"view"},{"type":"function","name":"fullPrice","inputs":[],"outputs":[{"name":"","type":"uint256","internalType":"uint256"}],"stateMutability":"view"},{"type":"function","name":"getApproved","inputs":[{"name":"tokenId","type":"uint256","internalType":"uint256"}],"outputs":[{"name":"","type":"address","internalType":"address"}],"stateMutability":"view"},{"type":"function","name":"isApprovedForAll","inputs":[{"name":"owner","type":"address","internalType":"address"},{"name":"operator","type":"address","internalType":"address"}],"outputs":[{"name":"","type":"bool","internalType":"bool"}],"stateMutability":"view"},{"type":"function","name":"mintPhase1","inputs":[{"name":"proof","type":"bytes32[]","internalType":"bytes32[]"}],"outputs":[],"stateMutability":"nonpayable"},{"type":"function","name":"mintPhase2","inputs":[{"name":"proof","type":"bytes32[]","internalType":"bytes32[]"},{"name":"signature","type":"bytes","internalType":"bytes"}],"outputs":[],"stateMutability":"nonpayable"},{"type":"function","name":"mintPhase3","inputs":[],"outputs":[],"stateMutability":"nonpayable"},{"type":"function","name":"name","inputs":[],"outputs":[{"name":"","type":"string","internalType":"string"}],"stateMutability":"view"},{"type":"function","name":"owner","inputs":[],"outputs":[{"name":"","type":"address","internalType":"address"}],"stateMutability":"view"},{"type":"function","name":"ownerOf","inputs":[{"name":"tokenId","type":"uint256","internalType":"uint256"}],"outputs":[{"name":"","type":"address","internalType":"address"}],"stateMutability":"view"},{"type":"function","name":"paymentToken","inputs":[],"outputs":[{"name":"","type":"address","internalType":"contract IERC20"}],"stateMutability":"view"},{"type":"function","name":"phase1MerkleRoot","inputs":[],"outputs":[{"name":"","type":"bytes32","internalType":"bytes32"}],"stateMutability":"view"},{"type":"function","name":"phase2MerkleRoot","inputs":[],"outputs":[{"name":"","type":"bytes32","internalType":"bytes32"}],"stateMutability":"view"},{"type":"function","name":"renounceOwnership","inputs":[],"outputs":[],"stateMutability":"nonpayable"},{"type":"function","name":"sablier","inputs":[],"outputs":[{"name":"","type":"address","internalType":"contract ISablier"}],"stateMutability":"view"},{"type":"function","name":"safeTransferFrom","inputs":[{"name":"from","type":"address","internalType":"address"},{"name":"to","type":"address","internalType":"address"},{"name":"tokenId","type":"uint256","internalType":"uint256"}],"outputs":[],"stateMutability":"nonpayable"},{"type":"function","name":"safeTransferFrom","inputs":[{"name":"from","type":"address","internalType":"address"},{"name":"to","type":"address","internalType":"address"},{"name":"tokenId","type":"uint256","internalType":"uint256"},{"name":"data","type":"bytes","internalType":"bytes"}],"outputs":[],"stateMutability":"nonpayable"},{"type":"function","name":"setApprovalForAll","inputs":[{"name":"operator","type":"address","internalType":"address"},{"name":"approved","type":"bool","internalType":"bool"}],"outputs":[],"stateMutability":"nonpayable"},{"type":"function","name":"setMerkleRoots","inputs":[{"name":"root1","type":"bytes32","internalType":"bytes32"},{"name":"root2","type":"bytes32","internalType":"bytes32"}],"outputs":[],"stateMutability":"nonpayable"},{"type":"function","name":"setPhase","inputs":[{"name":"phase","type":"uint8","internalType":"enum MultiUtilityNFT.MintPhase"}],"outputs":[],"stateMutability":"nonpayable"},{"type":"function","name":"supportsInterface","inputs":[{"name":"interfaceId","type":"bytes4","internalType":"bytes4"}],"outputs":[{"name":"","type":"bool","internalType":"bool"}],"stateMutability":"view"},{"type":"function","name":"symbol","inputs":[],"outputs":[{"name":"","type":"string","internalType":"string"}],"stateMutability":"view"},{"type":"function","name":"tokenURI","inputs":[{"name":"tokenId","type":"uint256","internalType":"uint256"}],"outputs":[{"name":"","type":"string","internalType":"string"}],"stateMutability":"view"},{"type":"function","name":"transferFrom","inputs":[{"name":"from","type":"address","internalType":"address"},{"name":"to","type":"address","internalType":"address"},{"name":"tokenId","type":"uint256","internalType":"uint256"}],"outputs":[],"stateMutability":"nonpayable"},{"type":"function","name":"transferOwnership","inputs":[{"name":"newOwner","type":"address","internalType":"address"}],"outputs":[],"stateMutability":"nonpayable"},{"type":"function","name":"usedSignatures","inputs":[{"name":"","type":"bytes32","internalType":"bytes32"}],"outputs":[{"name":"","type":"bool","internalType":"bool"}],"stateMutability":"view"},{"type":"event","name":"Approval","inputs":[{"name":"owner","type":"address","indexed":true,"internalType":"address"},{"name":"approved","type":"address","indexed":true,"internalType":"address"},{"name":"tokenId","type":"uint256","indexed":true,"internalType":"uint256"}],"anonymous":false},{"type":"event","name":"ApprovalForAll","inputs":[{"name":"owner","type":"address","indexed":true,"internalType":"address"},{"name":"operator","type":"address","indexed":true,"internalType":"address"},{"name":"approved","type":"bool","indexed":false,"internalType":"bool"}],"anonymous":false},{"type":"event","name":"Minted","inputs":[{"name":"user","type":"address","indexed":true,"internalType":"address"},{"name":"tokenId","type":"uint256","indexed":false,"internalType":"uint256"},{"name":"phase","type":"uint8","indexed":false,"internalType":"enum MultiUtilityNFT.MintPhase"},{"name":"price","type":"uint256","indexed":false,"internalType":"uint256"}],"anonymous":false},{"type":"event","name":"OwnershipTransferred","inputs":[{"name":"previousOwner","type":"address","indexed":true,"internalType":"address"},{"name":"newOwner","type":"address","indexed":true,"internalType":"address"}],"anonymous":false},{"type":"event","name":"Transfer","inputs":[{"name":"from","type":"address","indexed":true,"internalType":"address"},{"name":"to","type":"address","indexed":true,"internalType":"address"},{"name":"tokenId","type":"uint256","indexed":true,"internalType":"uint256"}],"anonymous":false},{"type":"error","name":"ECDSAInvalidSignature","inputs":[]},{"type":"error","name":"ECDSAInvalidSignatureLength","inputs":[{"name":"length","type":"uint256","internalType":"uint256"}]},{"type":"error","name":"ECDSAInvalidSignatureS","inputs":[{"name":"s","type":"bytes32","internalType":"bytes32"}]},{"type":"error","name":"ERC721IncorrectOwner","inputs":[{"name":"sender","type":"address","internalType":"address"},{"name":"tokenId","type":"uint256","internalType":"uint256"},{"name":"owner","type":"address","internalType":"address"}]},{"type":"error","name":"ERC721InsufficientApproval","inputs":[{"name":"operator","type":"address","internalType":"address"},{"name":"tokenId","type":"uint256","internalType":"uint256"}]},{"type":"error","name":"ERC721InvalidApprover","inputs":[{"name":"approver","type":"address","internalType":"address"}]},{"type":"error","name":"ERC721InvalidOperator","inputs":[{"name":"operator","type":"address","internalType":"address"}]},{"type":"error","name":"ERC721InvalidOwner","inputs":[{"name":"owner","type":"address","internalType":"address"}]},{"type":"error","name":"ERC721InvalidReceiver","inputs":[{"name":"receiver","type":"address","internalType":"address"}]},{"type":"error","name":"ERC721InvalidSender","inputs":[{"name":"sender","type":"address","internalType":"address"}]},{"type":"error","name":"ERC721NonexistentToken","inputs":[{"name":"tokenId","type":"uint256","internalType":"uint256"}]},{"type":"error","name":"OwnableInvalidOwner","inputs":[{"name":"owner","type":"address","internalType":"address"}]},{"type":"error","name":"OwnableUnauthorizedAccount","inputs":[{"name":"account","type":"address","internalType":"address"}]},{"type":"error","name":"ReentrancyGuardReentrantCall","inputs":[]}],"bytecode":{"object":"0x60806040526001600f55348015610014575f5ffd5b50604051613f98380380613f9883398181016040528101906100369190610418565b338686815f908161004791906106e0565b50806001908161005791906106e0565b5050505f73ffffffffffffffffffffffffffffffffffffffff168173ffffffffffffffffffffffffffffffffffffffff16036100ca575f6040517f1e4fbdf70000000000000000000000000000000000000000000000000000000081526004016100c191906107be565b60405180910390fd5b6100d98161017b60201b60201c565b50600160078190555083600b5f6101000a81548173ffffffffffffffffffffffffffffffffffffffff021916908373ffffffffffffffffffffffffffffffffffffffff16021790555082600c5f6101000a81548173ffffffffffffffffffffffffffffffffffffffff021916908373ffffffffffffffffffffffffffffffffffffffff16021790555081600d8190555080600e819055505050505050506107d7565b5f60065f9054906101000a900473ffffffffffffffffffffffffffffffffffffffff1690508160065f6101000a81548173ffffffffffffffffffffffffffffffffffffffff021916908373ffffffffffffffffffffffffffffffffffffffff1602179055508173ffffffffffffffffffffffffffffffffffffffff168173ffffffffffffffffffffffffffffffffffffffff167f8be0079c531659141344cd1fd0a4f28419497f9722a3daafe3b4186f6b6457e060405160405180910390a35050565b5f604051905090565b5f5ffd5b5f5ffd5b5f5ffd5b5f5ffd5b5f601f19601f8301169050919050565b7f4e487b71000000000000000000000000000000000000000000000000000000005f52604160045260245ffd5b61029d82610257565b810181811067ffffffffffffffff821117156102bc576102bb610267565b5b80604052505050565b5f6102ce61023e565b90506102da8282610294565b919050565b5f67ffffffffffffffff8211156102f9576102f8610267565b5b61030282610257565b9050602081019050919050565b8281835e5f83830152505050565b5f61032f61032a846102df565b6102c5565b90508281526020810184848401111561034b5761034a610253565b5b61035684828561030f565b509392505050565b5f82601f8301126103725761037161024f565b5b815161038284826020860161031d565b91505092915050565b5f73ffffffffffffffffffffffffffffffffffffffff82169050919050565b5f6103b48261038b565b9050919050565b6103c4816103aa565b81146103ce575f5ffd5b50565b5f815190506103df816103bb565b92915050565b5f819050919050565b6103f7816103e5565b8114610401575f5ffd5b50565b5f81519050610412816103ee565b92915050565b5f5f5f5f5f5f60c0878903121561043257610431610247565b5b5f87015167ffffffffffffffff81111561044f5761044e61024b565b5b61045b89828a0161035e565b965050602087015167ffffffffffffffff81111561047c5761047b61024b565b5b61048889828a0161035e565b955050604061049989828a016103d1565b94505060606104aa89828a016103d1565b93505060806104bb89828a01610404565b92505060a06104cc89828a01610404565b9150509295509295509295565b5f81519050919050565b7f4e487b71000000000000000000000000000000000000000000000000000000005f52602260045260245ffd5b5f600282049050600182168061052757607f821691505b60208210810361053a576105396104e3565b5b50919050565b5f819050815f5260205f209050919050565b5f6020601f8301049050919050565b5f82821b905092915050565b5f6008830261059c7fffffffffffffffffffffffffffffffffffffffffffffffffffffffffffffffff82610561565b6105a68683610561565b95508019841693508086168417925050509392505050565b5f819050919050565b5f6105e16105dc6105d7846103e5565b6105be565b6103e5565b9050919050565b5f819050919050565b6105fa836105c7565b61060e610606826105e8565b84845461056d565b825550505050565b5f5f905090565b610625610616565b6106308184846105f1565b505050565b5b81811015610653576106485f8261061d565b600181019050610636565b5050565b601f8211156106985761066981610540565b61067284610552565b81016020851015610681578190505b61069561068d85610552565b830182610635565b50505b505050565b5f82821c905092915050565b5f6106b85f198460080261069d565b1980831691505092915050565b5f6106d083836106a9565b9150826002028217905092915050565b6106e9826104d9565b67ffffffffffffffff81111561070257610701610267565b5b61070c8254610510565b610717828285610657565b5f60209050601f831160018114610748575f8415610736578287015190505b61074085826106c5565b8655506107a7565b601f19841661075686610540565b5f5b8281101561077d57848901518255600182019150602085019450602081019050610758565b8683101561079a5784890151610796601f8916826106a9565b8355505b6001600288020188555050505b505050505050565b6107b8816103aa565b82525050565b5f6020820190506107d15f8301846107af565b92915050565b6137b4806107e45f395ff3fe608060405234801561000f575f5ffd5b50600436106101d8575f3560e01c806370a0823111610102578063b88d4fde116100a0578063e985e9c51161006f578063e985e9c5146104f4578063edd634b814610524578063f2fde38b14610542578063f978fd611461055e576101d8565b8063b88d4fde1461046e578063c03afb591461048a578063c8788134146104a6578063c87b56dd146104c4576101d8565b806395d89b41116100dc57806395d89b41146103fc578063971197801461041a5780639a48eb5114610436578063a22cb46514610452576101d8565b806370a08231146103a4578063715018a6146103d45780638da5cb5b146103de576101d8565b80633013ce291161017a578063482879aa11610149578063482879aa1461032e578063484064a51461034c5780635b440435146103565780636352211e14610374576101d8565b80633013ce29146102ba57806332640963146102d857806342842e0e146102f4578063432baad314610310576101d8565b806306fdde03116101b657806306fdde0314610234578063081812fc14610252578063095ea7b31461028257806323b872dd1461029e576101d8565b806301ffc9a7146101dc57806304e067581461020c578063055ad42e14610216575b5f5ffd5b6101f660048036038101906101f191906127b9565b61058e565b60405161020391906127fe565b60405180910390f35b61021461066f565b005b61021e6107a2565b60405161022b919061288a565b60405180910390f35b61023c6107b4565b6040516102499190612913565b60405180910390f35b61026c60048036038101906102679190612966565b610843565b60405161027991906129d0565b60405180910390f35b61029c60048036038101906102979190612a13565b61085e565b005b6102b860048036038101906102b39190612a51565b610874565b005b6102c2610973565b6040516102cf9190612afc565b60405180910390f35b6102f260048036038101906102ed9190612b76565b610998565b005b61030e60048036038101906103099190612a51565b610ae1565b005b610318610b00565b6040516103259190612bd9565b60405180910390f35b610336610b06565b6040516103439190612c12565b60405180910390f35b610354610b2b565b005b61035e610d56565b60405161036b9190612bd9565b60405180910390f35b61038e60048036038101906103899190612966565b610d5c565b60405161039b91906129d0565b60405180910390f35b6103be60048036038101906103b99190612c2b565b610d6d565b6040516103cb9190612c65565b60405180910390f35b6103dc610e23565b005b6103e6610e36565b6040516103f391906129d0565b60405180910390f35b610404610e5e565b6040516104119190612913565b60405180910390f35b610434600480360381019061042f9190612da6565b610eee565b005b610450600480360381019061044b9190612e49565b611227565b005b61046c60048036038101906104679190612eb1565b611241565b005b61048860048036038101906104839190612eef565b611257565b005b6104a4600480360381019061049f9190612f92565b61127c565b005b6104ae6112b0565b6040516104bb9190612c65565b60405180910390f35b6104de60048036038101906104d99190612966565b6112b6565b6040516104eb9190612913565b60405180910390f35b61050e60048036038101906105099190612fbd565b61131c565b60405161051b91906127fe565b60405180910390f35b61052c6113aa565b6040516105399190612c65565b60405180910390f35b61055c60048036038101906105579190612c2b565b6113b0565b005b61057860048036038101906105739190612ffb565b611434565b60405161058591906127fe565b60405180910390f35b5f7f80ac58cd000000000000000000000000000000000000000000000000000000007bffffffffffffffffffffffffffffffffffffffffffffffffffffffff1916827bffffffffffffffffffffffffffffffffffffffffffffffffffffffff1916148061065857507f5b5e139f000000000000000000000000000000000000000000000000000000007bffffffffffffffffffffffffffffffffffffffffffffffffffffffff1916827bffffffffffffffffffffffffffffffffffffffffffffffffffffffff1916145b80610668575061066782611451565b5b9050919050565b6106776114ba565b60028081111561068a57610689612817565b5b60085f9054906101000a900460ff1660028111156106ab576106aa612817565b5b146106eb576040517f08c379a00000000000000000000000000000000000000000000000000000000081526004016106e290613070565b60405180910390fd5b600b5f9054906101000a900473ffffffffffffffffffffffffffffffffffffffff1673ffffffffffffffffffffffffffffffffffffffff166323b872dd3330600d546040518463ffffffff1660e01b815260040161074b9392919061308e565b6020604051808303815f875af1158015610767573d5f5f3e3d5ffd5b505050506040513d601f19601f8201168201806040525081019061078b91906130d7565b5061079833600d54611500565b6107a0611588565b565b60085f9054906101000a900460ff1681565b60605f80546107c29061312f565b80601f01602080910402602001604051908101604052809291908181526020018280546107ee9061312f565b80156108395780601f1061081057610100808354040283529160200191610839565b820191905f5260205f20905b81548152906001019060200180831161081c57829003601f168201915b5050505050905090565b5f61084d82611592565b5061085782611618565b9050919050565b610870828261086b611651565b611658565b5050565b5f73ffffffffffffffffffffffffffffffffffffffff168273ffffffffffffffffffffffffffffffffffffffff16036108e4575f6040517f64a0ae920000000000000000000000000000000000000000000000000000000081526004016108db91906129d0565b60405180910390fd5b5f6108f783836108f2611651565b61166a565b90508373ffffffffffffffffffffffffffffffffffffffff168173ffffffffffffffffffffffffffffffffffffffff161461096d578382826040517f64283d7b0000000000000000000000000000000000000000000000000000000081526004016109649392919061315f565b60405180910390fd5b50505050565b600b5f9054906101000a900473ffffffffffffffffffffffffffffffffffffffff1681565b6109a06114ba565b5f60028111156109b3576109b2612817565b5b60085f9054906101000a900460ff1660028111156109d4576109d3612817565b5b14610a14576040517f08c379a0000000000000000000000000000000000000000000000000000000008152600401610a0b906131de565b60405180910390fd5b5f33604051602001610a269190613241565b604051602081830303815290604052805190602001209050610a8b8383808060200260200160405190810160405280939291908181526020018383602002808284375f81840152601f19601f8201169050808301925050505050505060095483611875565b610aca576040517f08c379a0000000000000000000000000000000000000000000000000000000008152600401610ac1906132a5565b60405180910390fd5b610ad4335f611500565b50610add611588565b5050565b610afb83838360405180602001604052805f815250611257565b505050565b60095481565b600c5f9054906101000a900473ffffffffffffffffffffffffffffffffffffffff1681565b610b3361188b565b5f600b5f9054906101000a900473ffffffffffffffffffffffffffffffffffffffff1673ffffffffffffffffffffffffffffffffffffffff166370a08231306040518263ffffffff1660e01b8152600401610b8e91906129d0565b602060405180830381865afa158015610ba9573d5f5f3e3d5ffd5b505050506040513d601f19601f82011682018060405250810190610bcd91906132d7565b9050600b5f9054906101000a900473ffffffffffffffffffffffffffffffffffffffff1673ffffffffffffffffffffffffffffffffffffffff1663095ea7b3600c5f9054906101000a900473ffffffffffffffffffffffffffffffffffffffff16836040518363ffffffff1660e01b8152600401610c4c929190613302565b6020604051808303815f875af1158015610c68573d5f5f3e3d5ffd5b505050506040513d601f19601f82011682018060405250810190610c8c91906130d7565b50600c5f9054906101000a900473ffffffffffffffffffffffffffffffffffffffff1673ffffffffffffffffffffffffffffffffffffffff1663cc1b4bf6610cd2610e36565b83600b5f9054906101000a900473ffffffffffffffffffffffffffffffffffffffff16426301e1338042610d069190613356565b6040518663ffffffff1660e01b8152600401610d26959493929190613389565b5f604051808303815f87803b158015610d3d575f5ffd5b505af1158015610d4f573d5f5f3e3d5ffd5b5050505050565b600a5481565b5f610d6682611592565b9050919050565b5f5f73ffffffffffffffffffffffffffffffffffffffff168273ffffffffffffffffffffffffffffffffffffffff1603610dde575f6040517f89c62b64000000000000000000000000000000000000000000000000000000008152600401610dd591906129d0565b60405180910390fd5b60035f8373ffffffffffffffffffffffffffffffffffffffff1673ffffffffffffffffffffffffffffffffffffffff1681526020019081526020015f20549050919050565b610e2b61188b565b610e345f611912565b565b5f60065f9054906101000a900473ffffffffffffffffffffffffffffffffffffffff16905090565b606060018054610e6d9061312f565b80601f0160208091040260200160405190810160405280929190818152602001828054610e999061312f565b8015610ee45780601f10610ebb57610100808354040283529160200191610ee4565b820191905f5260205f20905b815481529060010190602001808311610ec757829003601f168201915b5050505050905090565b610ef66114ba565b60016002811115610f0a57610f09612817565b5b60085f9054906101000a900460ff166002811115610f2b57610f2a612817565b5b14610f6b576040517f08c379a0000000000000000000000000000000000000000000000000000000008152600401610f6290613424565b60405180910390fd5b5f33604051602001610f7d9190613241565b604051602081830303815290604052805190602001209050610fe28484808060200260200160405190810160405280939291908181526020018383602002808284375f81840152601f19601f82011690508083019250505050505050600a5483611875565b611021576040517f08c379a0000000000000000000000000000000000000000000000000000000008152600401611018906132a5565b60405180910390fd5b5f336040516020016110339190613241565b6040516020818303038152906040528051906020012090505f611055826119d5565b90505f61106b8584611a0890919063ffffffff16565b9050611075610e36565b73ffffffffffffffffffffffffffffffffffffffff168173ffffffffffffffffffffffffffffffffffffffff16146110e2576040517f08c379a00000000000000000000000000000000000000000000000000000000081526004016110d99061348c565b60405180910390fd5b60105f8481526020019081526020015f205f9054906101000a900460ff1615611140576040517f08c379a0000000000000000000000000000000000000000000000000000000008152600401611137906134f4565b60405180910390fd5b600160105f8581526020019081526020015f205f6101000a81548160ff021916908315150217905550600b5f9054906101000a900473ffffffffffffffffffffffffffffffffffffffff1673ffffffffffffffffffffffffffffffffffffffff166323b872dd3330600e546040518463ffffffff1660e01b81526004016111c99392919061308e565b6020604051808303815f875af11580156111e5573d5f5f3e3d5ffd5b505050506040513d601f19601f8201168201806040525081019061120991906130d7565b5061121633600e54611500565b50505050611222611588565b505050565b61122f61188b565b8160098190555080600a819055505050565b61125361124c611651565b8383611a32565b5050565b611262848484610874565b61127661126d611651565b85858585611b9b565b50505050565b61128461188b565b8060085f6101000a81548160ff021916908360028111156112a8576112a7612817565b5b021790555050565b600e5481565b60606112c182611592565b505f6112cb611d47565b90505f8151116112e95760405180602001604052805f815250611314565b806112f384611d5d565b60405160200161130492919061354c565b6040516020818303038152906040525b915050919050565b5f60055f8473ffffffffffffffffffffffffffffffffffffffff1673ffffffffffffffffffffffffffffffffffffffff1681526020019081526020015f205f8373ffffffffffffffffffffffffffffffffffffffff1673ffffffffffffffffffffffffffffffffffffffff1681526020019081526020015f205f9054906101000a900460ff16905092915050565b600d5481565b6113b861188b565b5f73ffffffffffffffffffffffffffffffffffffffff168173ffffffffffffffffffffffffffffffffffffffff1603611428575f6040517f1e4fbdf700000000000000000000000000000000000000000000000000000000815260040161141f91906129d0565b60405180910390fd5b61143181611912565b50565b6010602052805f5260405f205f915054906101000a900460ff1681565b5f7f01ffc9a7000000000000000000000000000000000000000000000000000000007bffffffffffffffffffffffffffffffffffffffffffffffffffffffff1916827bffffffffffffffffffffffffffffffffffffffffffffffffffffffff1916149050919050565b6002600754036114f6576040517f3ee5aeb500000000000000000000000000000000000000000000000000000000815260040160405180910390fd5b6002600781905550565b5f600f5f8154809291906115139061356f565b9190505590506115238382611e27565b8273ffffffffffffffffffffffffffffffffffffffff167f0fcee5463734b554d0accfca29a4811ecd45e6c12b1cee0cb22d8d8eb3be1c338260085f9054906101000a900460ff168560405161157b939291906135b6565b60405180910390a2505050565b6001600781905550565b5f5f61159d83611e44565b90505f73ffffffffffffffffffffffffffffffffffffffff168173ffffffffffffffffffffffffffffffffffffffff160361160f57826040517f7e2732890000000000000000000000000000000000000000000000000000000081526004016116069190612c65565b60405180910390fd5b80915050919050565b5f60045f8381526020019081526020015f205f9054906101000a900473ffffffffffffffffffffffffffffffffffffffff169050919050565b5f33905090565b6116658383836001611e7d565b505050565b5f5f61167584611e44565b90505f73ffffffffffffffffffffffffffffffffffffffff168373ffffffffffffffffffffffffffffffffffffffff16146116b6576116b581848661203c565b5b5f73ffffffffffffffffffffffffffffffffffffffff168173ffffffffffffffffffffffffffffffffffffffff1614611741576116f55f855f5f611e7d565b600160035f8373ffffffffffffffffffffffffffffffffffffffff1673ffffffffffffffffffffffffffffffffffffffff1681526020019081526020015f205f82825403925050819055505b5f73ffffffffffffffffffffffffffffffffffffffff168573ffffffffffffffffffffffffffffffffffffffff16146117c057600160035f8773ffffffffffffffffffffffffffffffffffffffff1673ffffffffffffffffffffffffffffffffffffffff1681526020019081526020015f205f82825401925050819055505b8460025f8681526020019081526020015f205f6101000a81548173ffffffffffffffffffffffffffffffffffffffff021916908373ffffffffffffffffffffffffffffffffffffffff160217905550838573ffffffffffffffffffffffffffffffffffffffff168273ffffffffffffffffffffffffffffffffffffffff167fddf252ad1be2c89b69c2b068fc378daa952ba7f163c4a11628f55a4df523b3ef60405160405180910390a4809150509392505050565b5f8261188185846120ff565b1490509392505050565b611893611651565b73ffffffffffffffffffffffffffffffffffffffff166118b1610e36565b73ffffffffffffffffffffffffffffffffffffffff1614611910576118d4611651565b6040517f118cdaa700000000000000000000000000000000000000000000000000000000815260040161190791906129d0565b60405180910390fd5b565b5f60065f9054906101000a900473ffffffffffffffffffffffffffffffffffffffff1690508160065f6101000a81548173ffffffffffffffffffffffffffffffffffffffff021916908373ffffffffffffffffffffffffffffffffffffffff1602179055508173ffffffffffffffffffffffffffffffffffffffff168173ffffffffffffffffffffffffffffffffffffffff167f8be0079c531659141344cd1fd0a4f28419497f9722a3daafe3b4186f6b6457e060405160405180910390a35050565b5f7f19457468657265756d205369676e6564204d6573736167653a0a3332000000005f5281601c52603c5f209050919050565b5f5f5f5f611a168686612150565b925092509250611a2682826121a5565b82935050505092915050565b5f73ffffffffffffffffffffffffffffffffffffffff168273ffffffffffffffffffffffffffffffffffffffff1603611aa257816040517f5b08ba18000000000000000000000000000000000000000000000000000000008152600401611a9991906129d0565b60405180910390fd5b8060055f8573ffffffffffffffffffffffffffffffffffffffff1673ffffffffffffffffffffffffffffffffffffffff1681526020019081526020015f205f8473ffffffffffffffffffffffffffffffffffffffff1673ffffffffffffffffffffffffffffffffffffffff1681526020019081526020015f205f6101000a81548160ff0219169083151502179055508173ffffffffffffffffffffffffffffffffffffffff168373ffffffffffffffffffffffffffffffffffffffff167f17307eab39ab6107e8899845ad3d59bd9653f200f220920489ca2b5937696c3183604051611b8e91906127fe565b60405180910390a3505050565b5f8373ffffffffffffffffffffffffffffffffffffffff163b1115611d40578273ffffffffffffffffffffffffffffffffffffffff1663150b7a02868685856040518563ffffffff1660e01b8152600401611bf9949392919061363d565b6020604051808303815f875af1925050508015611c3457506040513d601f19601f82011682018060405250810190611c31919061369b565b60015b611cb5573d805f8114611c62576040519150601f19603f3d011682016040523d82523d5f602084013e611c67565b606091505b505f815103611cad57836040517f64a0ae92000000000000000000000000000000000000000000000000000000008152600401611ca491906129d0565b60405180910390fd5b805181602001fd5b63150b7a0260e01b7bffffffffffffffffffffffffffffffffffffffffffffffffffffffff1916817bffffffffffffffffffffffffffffffffffffffffffffffffffffffff191614611d3e57836040517f64a0ae92000000000000000000000000000000000000000000000000000000008152600401611d3591906129d0565b60405180910390fd5b505b5050505050565b606060405180602001604052805f815250905090565b60605f6001611d6b84612307565b0190505f8167ffffffffffffffff811115611d8957611d88612c82565b5b6040519080825280601f01601f191660200182016040528015611dbb5781602001600182028036833780820191505090505b5090505f82602001820190505b600115611e1c578080600190039150507f3031323334353637383961626364656600000000000000000000000000000000600a86061a8153600a8581611e1157611e106136c6565b5b0494505f8503611dc8575b819350505050919050565b611e40828260405180602001604052805f815250612458565b5050565b5f60025f8381526020019081526020015f205f9054906101000a900473ffffffffffffffffffffffffffffffffffffffff169050919050565b8080611eb557505f73ffffffffffffffffffffffffffffffffffffffff168273ffffffffffffffffffffffffffffffffffffffff1614155b15611fe7575f611ec484611592565b90505f73ffffffffffffffffffffffffffffffffffffffff168373ffffffffffffffffffffffffffffffffffffffff1614158015611f2e57508273ffffffffffffffffffffffffffffffffffffffff168173ffffffffffffffffffffffffffffffffffffffff1614155b8015611f415750611f3f818461131c565b155b15611f8357826040517fa9fbf51f000000000000000000000000000000000000000000000000000000008152600401611f7a91906129d0565b60405180910390fd5b8115611fe557838573ffffffffffffffffffffffffffffffffffffffff168273ffffffffffffffffffffffffffffffffffffffff167f8c5be1e5ebec7d5bd14f71427d1e84f3dd0314c0f7b2291e5b200ac8c7c3b92560405160405180910390a45b505b8360045f8581526020019081526020015f205f6101000a81548173ffffffffffffffffffffffffffffffffffffffff021916908373ffffffffffffffffffffffffffffffffffffffff16021790555050505050565b61204783838361247b565b6120fa575f73ffffffffffffffffffffffffffffffffffffffff168373ffffffffffffffffffffffffffffffffffffffff16036120bb57806040517f7e2732890000000000000000000000000000000000000000000000000000000081526004016120b29190612c65565b60405180910390fd5b81816040517f177e802f0000000000000000000000000000000000000000000000000000000081526004016120f1929190613302565b60405180910390fd5b505050565b5f5f8290505f5f90505b84518110156121455761213682868381518110612129576121286136f3565b5b602002602001015161253b565b91508080600101915050612109565b508091505092915050565b5f5f5f6041845103612190575f5f5f602087015192506040870151915060608701515f1a905061218288828585612565565b95509550955050505061219e565b5f600285515f1b9250925092505b9250925092565b5f60038111156121b8576121b7612817565b5b8260038111156121cb576121ca612817565b5b031561230357600160038111156121e5576121e4612817565b5b8260038111156121f8576121f7612817565b5b0361222f576040517ff645eedf00000000000000000000000000000000000000000000000000000000815260040160405180910390fd5b6002600381111561224357612242612817565b5b82600381111561225657612255612817565b5b0361229a57805f1c6040517ffce698f70000000000000000000000000000000000000000000000000000000081526004016122919190612c65565b60405180910390fd5b6003808111156122ad576122ac612817565b5b8260038111156122c0576122bf612817565b5b0361230257806040517fd78bce0c0000000000000000000000000000000000000000000000000000000081526004016122f99190612bd9565b60405180910390fd5b5b5050565b5f5f5f90507a184f03e93ff9f4daa797ed6e38ed64bf6a1f0100000000000000008310612363577a184f03e93ff9f4daa797ed6e38ed64bf6a1f0100000000000000008381612359576123586136c6565b5b0492506040810190505b6d04ee2d6d415b85acef810000000083106123a0576d04ee2d6d415b85acef81000000008381612396576123956136c6565b5b0492506020810190505b662386f26fc1000083106123cf57662386f26fc1000083816123c5576123c46136c6565b5b0492506010810190505b6305f5e10083106123f8576305f5e10083816123ee576123ed6136c6565b5b0492506008810190505b612710831061241d576127108381612413576124126136c6565b5b0492506004810190505b606483106124405760648381612436576124356136c6565b5b0492506002810190505b600a831061244f576001810190505b80915050919050565b612462838361264c565b61247661246d611651565b5f858585611b9b565b505050565b5f5f73ffffffffffffffffffffffffffffffffffffffff168373ffffffffffffffffffffffffffffffffffffffff161415801561253257508273ffffffffffffffffffffffffffffffffffffffff168473ffffffffffffffffffffffffffffffffffffffff1614806124f357506124f2848461131c565b5b8061253157508273ffffffffffffffffffffffffffffffffffffffff1661251983611618565b73ffffffffffffffffffffffffffffffffffffffff16145b5b90509392505050565b5f8183106125525761254d828461273f565b61255d565b61255c838361273f565b5b905092915050565b5f5f5f7f7fffffffffffffffffffffffffffffff5d576e7357a4501ddfe92f46681b20a0845f1c11156125a1575f600385925092509250612642565b5f6001888888886040515f81526020016040526040516125c4949392919061373b565b6020604051602081039080840390855afa1580156125e4573d5f5f3e3d5ffd5b5050506020604051035190505f73ffffffffffffffffffffffffffffffffffffffff168173ffffffffffffffffffffffffffffffffffffffff1603612635575f60015f5f1b93509350935050612642565b805f5f5f1b935093509350505b9450945094915050565b5f73ffffffffffffffffffffffffffffffffffffffff168273ffffffffffffffffffffffffffffffffffffffff16036126bc575f6040517f64a0ae920000000000000000000000000000000000000000000000000000000081526004016126b391906129d0565b60405180910390fd5b5f6126c883835f61166a565b90505f73ffffffffffffffffffffffffffffffffffffffff168173ffffffffffffffffffffffffffffffffffffffff161461273a575f6040517f73c6ac6e00000000000000000000000000000000000000000000000000000000815260040161273191906129d0565b60405180910390fd5b505050565b5f825f528160205260405f20905092915050565b5f604051905090565b5f5ffd5b5f5ffd5b5f7fffffffff0000000000000000000000000000000000000000000000000000000082169050919050565b61279881612764565b81146127a2575f5ffd5b50565b5f813590506127b38161278f565b92915050565b5f602082840312156127ce576127cd61275c565b5b5f6127db848285016127a5565b91505092915050565b5f8115159050919050565b6127f8816127e4565b82525050565b5f6020820190506128115f8301846127ef565b92915050565b7f4e487b71000000000000000000000000000000000000000000000000000000005f52602160045260245ffd5b6003811061285557612854612817565b5b50565b5f81905061286582612844565b919050565b5f61287482612858565b9050919050565b6128848161286a565b82525050565b5f60208201905061289d5f83018461287b565b92915050565b5f81519050919050565b5f82825260208201905092915050565b8281835e5f83830152505050565b5f601f19601f8301169050919050565b5f6128e5826128a3565b6128ef81856128ad565b93506128ff8185602086016128bd565b612908816128cb565b840191505092915050565b5f6020820190508181035f83015261292b81846128db565b905092915050565b5f819050919050565b61294581612933565b811461294f575f5ffd5b50565b5f813590506129608161293c565b92915050565b5f6020828403121561297b5761297a61275c565b5b5f61298884828501612952565b91505092915050565b5f73ffffffffffffffffffffffffffffffffffffffff82169050919050565b5f6129ba82612991565b9050919050565b6129ca816129b0565b82525050565b5f6020820190506129e35f8301846129c1565b92915050565b6129f2816129b0565b81146129fc575f5ffd5b50565b5f81359050612a0d816129e9565b92915050565b5f5f60408385031215612a2957612a2861275c565b5b5f612a36858286016129ff565b9250506020612a4785828601612952565b9150509250929050565b5f5f5f60608486031215612a6857612a6761275c565b5b5f612a75868287016129ff565b9350506020612a86868287016129ff565b9250506040612a9786828701612952565b9150509250925092565b5f819050919050565b5f612ac4612abf612aba84612991565b612aa1565b612991565b9050919050565b5f612ad582612aaa565b9050919050565b5f612ae682612acb565b9050919050565b612af681612adc565b82525050565b5f602082019050612b0f5f830184612aed565b92915050565b5f5ffd5b5f5ffd5b5f5ffd5b5f5f83601f840112612b3657612b35612b15565b5b8235905067ffffffffffffffff811115612b5357612b52612b19565b5b602083019150836020820283011115612b6f57612b6e612b1d565b5b9250929050565b5f5f60208385031215612b8c57612b8b61275c565b5b5f83013567ffffffffffffffff811115612ba957612ba8612760565b5b612bb585828601612b21565b92509250509250929050565b5f819050919050565b612bd381612bc1565b82525050565b5f602082019050612bec5f830184612bca565b92915050565b5f612bfc82612acb565b9050919050565b612c0c81612bf2565b82525050565b5f602082019050612c255f830184612c03565b92915050565b5f60208284031215612c4057612c3f61275c565b5b5f612c4d848285016129ff565b91505092915050565b612c5f81612933565b82525050565b5f602082019050612c785f830184612c56565b92915050565b5f5ffd5b7f4e487b71000000000000000000000000000000000000000000000000000000005f52604160045260245ffd5b612cb8826128cb565b810181811067ffffffffffffffff82111715612cd757612cd6612c82565b5b80604052505050565b5f612ce9612753565b9050612cf58282612caf565b919050565b5f67ffffffffffffffff821115612d1457612d13612c82565b5b612d1d826128cb565b9050602081019050919050565b828183375f83830152505050565b5f612d4a612d4584612cfa565b612ce0565b905082815260208101848484011115612d6657612d65612c7e565b5b612d71848285612d2a565b509392505050565b5f82601f830112612d8d57612d8c612b15565b5b8135612d9d848260208601612d38565b91505092915050565b5f5f5f60408486031215612dbd57612dbc61275c565b5b5f84013567ffffffffffffffff811115612dda57612dd9612760565b5b612de686828701612b21565b9350935050602084013567ffffffffffffffff811115612e0957612e08612760565b5b612e1586828701612d79565b9150509250925092565b612e2881612bc1565b8114612e32575f5ffd5b50565b5f81359050612e4381612e1f565b92915050565b5f5f60408385031215612e5f57612e5e61275c565b5b5f612e6c85828601612e35565b9250506020612e7d85828601612e35565b9150509250929050565b612e90816127e4565b8114612e9a575f5ffd5b50565b5f81359050612eab81612e87565b92915050565b5f5f60408385031215612ec757612ec661275c565b5b5f612ed4858286016129ff565b9250506020612ee585828601612e9d565b9150509250929050565b5f5f5f5f60808587031215612f0757612f0661275c565b5b5f612f14878288016129ff565b9450506020612f25878288016129ff565b9350506040612f3687828801612952565b925050606085013567ffffffffffffffff811115612f5757612f56612760565b5b612f6387828801612d79565b91505092959194509250565b60038110612f7b575f5ffd5b50565b5f81359050612f8c81612f6f565b92915050565b5f60208284031215612fa757612fa661275c565b5b5f612fb484828501612f7e565b91505092915050565b5f5f60408385031215612fd357612fd261275c565b5b5f612fe0858286016129ff565b9250506020612ff1858286016129ff565b9150509250929050565b5f602082840312156130105761300f61275c565b5b5f61301d84828501612e35565b91505092915050565b7f4e6f7420506861736520330000000000000000000000000000000000000000005f82015250565b5f61305a600b836128ad565b915061306582613026565b602082019050919050565b5f6020820190508181035f8301526130878161304e565b9050919050565b5f6060820190506130a15f8301866129c1565b6130ae60208301856129c1565b6130bb6040830184612c56565b949350505050565b5f815190506130d181612e87565b92915050565b5f602082840312156130ec576130eb61275c565b5b5f6130f9848285016130c3565b91505092915050565b7f4e487b71000000000000000000000000000000000000000000000000000000005f52602260045260245ffd5b5f600282049050600182168061314657607f821691505b60208210810361315957613158613102565b5b50919050565b5f6060820190506131725f8301866129c1565b61317f6020830185612c56565b61318c60408301846129c1565b949350505050565b7f4e6f7420506861736520310000000000000000000000000000000000000000005f82015250565b5f6131c8600b836128ad565b91506131d382613194565b602082019050919050565b5f6020820190508181035f8301526131f5816131bc565b9050919050565b5f8160601b9050919050565b5f613212826131fc565b9050919050565b5f61322382613208565b9050919050565b61323b613236826129b0565b613219565b82525050565b5f61324c828461322a565b60148201915081905092915050565b7f496e76616c69642070726f6f66000000000000000000000000000000000000005f82015250565b5f61328f600d836128ad565b915061329a8261325b565b602082019050919050565b5f6020820190508181035f8301526132bc81613283565b9050919050565b5f815190506132d18161293c565b92915050565b5f602082840312156132ec576132eb61275c565b5b5f6132f9848285016132c3565b91505092915050565b5f6040820190506133155f8301856129c1565b6133226020830184612c56565b9392505050565b7f4e487b71000000000000000000000000000000000000000000000000000000005f52601160045260245ffd5b5f61336082612933565b915061336b83612933565b925082820190508082111561338357613382613329565b5b92915050565b5f60a08201905061339c5f8301886129c1565b6133a96020830187612c56565b6133b660408301866129c1565b6133c36060830185612c56565b6133d06080830184612c56565b9695505050505050565b7f4e6f7420506861736520320000000000000000000000000000000000000000005f82015250565b5f61340e600b836128ad565b9150613419826133da565b602082019050919050565b5f6020820190508181035f83015261343b81613402565b9050919050565b7f496e76616c6964207369676e61747572650000000000000000000000000000005f82015250565b5f6134766011836128ad565b915061348182613442565b602082019050919050565b5f6020820190508181035f8301526134a38161346a565b9050919050565b7f5369676e617475726520726575736564000000000000000000000000000000005f82015250565b5f6134de6010836128ad565b91506134e9826134aa565b602082019050919050565b5f6020820190508181035f83015261350b816134d2565b9050919050565b5f81905092915050565b5f613526826128a3565b6135308185613512565b93506135408185602086016128bd565b80840191505092915050565b5f613557828561351c565b9150613563828461351c565b91508190509392505050565b5f61357982612933565b91507fffffffffffffffffffffffffffffffffffffffffffffffffffffffffffffffff82036135ab576135aa613329565b5b600182019050919050565b5f6060820190506135c95f830186612c56565b6135d6602083018561287b565b6135e36040830184612c56565b949350505050565b5f81519050919050565b5f82825260208201905092915050565b5f61360f826135eb565b61361981856135f5565b93506136298185602086016128bd565b613632816128cb565b840191505092915050565b5f6080820190506136505f8301876129c1565b61365d60208301866129c1565b61366a6040830185612c56565b818103606083015261367c8184613605565b905095945050505050565b5f815190506136958161278f565b92915050565b5f602082840312156136b0576136af61275c565b5b5f6136bd84828501613687565b91505092915050565b7f4e487b71000000000000000000000000000000000000000000000000000000005f52601260045260245ffd5b7f4e487b71000000000000000000000000000000000000000000000000000000005f52603260045260245ffd5b5f60ff82169050919050565b61373581613720565b82525050565b5f60808201905061374e5f830187612bca565b61375b602083018661372c565b6137686040830185612bca565b6137756060830184612bca565b9594505050505056fea2646970667358221220b088daa53688803447388997fd4b9fa6737b41ca04c3261222ad15d02906a36964736f6c634300081c0033","linkReferences":{}},"methodIdentifiers":{"approve(address,uint256)":"095ea7b3","balanceOf(address)":"70a08231","createVestingStream()":"484064a5","currentPhase()":"055ad42e","discountedPrice()":"c8788134","fullPrice()":"edd634b8","getApproved(uint256)":"081812fc","isApprovedForAll(address,address)":"e985e9c5","mintPhase1(bytes32[])":"32640963","mintPhase2(bytes32[],bytes)":"97119780","mintPhase3()":"04e06758","name()":"06fdde03","owner()":"8da5cb5b","ownerOf(uint256)":"6352211e","paymentToken()":"3013ce29","phase1MerkleRoot()":"432baad3","phase2MerkleRoot()":"5b440435","renounceOwnership()":"715018a6","sablier()":"482879aa","safeTransferFrom(address,address,uint256)":"42842e0e","safeTransferFrom(address,address,uint256,bytes)":"b88d4fde","setApprovalForAll(address,bool)":"a22cb465","setMerkleRoots(bytes32,bytes32)":"9a48eb51","setPhase(uint8)":"c03afb59","supportsInterface(bytes4)":"01ffc9a7","symbol()":"95d89b41","tokenURI(uint256)":"c87b56dd","transferFrom(address,address,uint256)":"23b872dd","transferOwnership(address)":"f2fde38b","usedSignatures(bytes32)":"f978fd61"},"id":42}