{"abi":[{"type":"function","name":"createWithDurations","inputs":[{"name":"params","type":"tuple","internalType":"struct ISablier.CreateWithDurations","components":[{"name":"sender","type":"address","internalType":"address"},{"name":"cancelable","type":"bool","internalType":"bool"},{"name":"transferable","type":"bool","internalType":"bool"},{"name":"recipient","type":"address","internalType":"address"},{"name":"totalAmount","type":"uint128","internalType":"uint128"},{"name":"asset","type":"address","internalType":"contract IERC20"},{"name":"cliffDuration","type":"uint40","internalType":"uint40"},{"name":"totalDuration","type":"uint40","internalType":"uint40"}]}],"outputs":[{"name":"streamId","type":"uint256","internalType":"uint256"}],"stateMutability":"nonpayable"},{"type":"function","name":"nextStreamId","inputs":[],"outputs":[{"name":"","type":"uint256","internalType":"uint256"}],"stateMutability":"view"},{"type":"function","name":"streams","inputs":[{"name":"","type":"uint256","internalType":"uint256"}],"outputs":[{"name":"sender","type":"address","internalType":"address"},{"name":"recipient","type":"address","internalType":"address"},{"name":"asset","type":"address","internalType":"contract IERC20"},{"name":"amount","type":"uint128","internalType":"uint128"},{"name":"startTime","type":"uint40","internalType":"uint40"},{"name":"duration","type":"uint40","internalType":"uint40"}],"stateMutability":"view"}],"bytecode":{"object":"0x6080604052348015600e575f5ffd5b506103a88061001c5f395ff3fe608060405234801561000f575f5ffd5b506004361061003f575f3560e01c80631e99d5691461004357806364d60d911461005e5780636756723814610117575b5f5ffd5b61004b5f5481565b6040519081526020015b60405180910390f35b6100c761006c36600461029a565b600160208190525f918252604090912080549181015460028201546003909201546001600160a01b039384169391821692909116906001600160801b0381169064ffffffffff600160801b8204811691600160a81b90041686565b604080516001600160a01b039788168152958716602087015293909516928401929092526001600160801b0316606083015264ffffffffff908116608083015290911660a082015260c001610055565b61004b6101253660046102b1565b5f80548180610133836102cb565b909155506040805160c08101909152909150806101536020850185610306565b6001600160a01b031681526020016101716080850160608601610306565b6001600160a01b0316815260200161018f60c0850160a08601610306565b6001600160a01b031681526020016101ad60a0850160808601610328565b6001600160801b0316815264ffffffffff421660208201526040016101d9610100850160e0860161034e565b64ffffffffff9081169091525f83815260016020818152604092839020855181546001600160a01b03199081166001600160a01b03928316178355928701519382018054841694821694909417909355928501516002840180549092169216919091179055606083015160039091018054608085015160a0909501516001600160801b039093166001600160a81b031990911617600160801b948416949094029390931764ffffffffff60a81b1916600160a81b9190921602179055919050565b5f602082840312156102aa575f5ffd5b5035919050565b5f6101008284031280156102c3575f5ffd5b509092915050565b5f600182016102e857634e487b7160e01b5f52601160045260245ffd5b5060010190565b6001600160a01b0381168114610303575f5ffd5b50565b5f60208284031215610316575f5ffd5b8135610321816102ef565b9392505050565b5f60208284031215610338575f5ffd5b81356001600160801b0381168114610321575f5ffd5b5f6020828403121561035e575f5ffd5b813564ffffffffff81168114610321575f5ffdfea2646970667358221220ec7a701b8eb278e4c1e24de98537d9aa9907f93775f43f5e858f536b4b4d16d364736f6c634300081c0033","linkReferences":{}},"methodIdentifiers":{"createWithDurations((address,bool,bool,address,uint128,address,uint40,uint40))":"67567238","nextStreamId()":"1e99d569","streams(uint256)":"64d60d91"},"id":46}