{"abi":[{"type":"function","name":"createWithDurations","inputs":[{"name":"params","type":"tuple","internalType":"struct ISablier.CreateWithDurations","components":[{"name":"sender","type":"address","internalType":"address"},{"name":"cancelable","type":"bool","internalType":"bool"},{"name":"transferable","type":"bool","internalType":"bool"},{"name":"recipient","type":"address","internalType":"address"},{"name":"totalAmount","type":"uint128","internalType":"uint128"},{"name":"asset","type":"address","internalType":"contract IERC20"},{"name":"cliffDuration","type":"uint40","internalType":"uint40"},{"name":"totalDuration","type":"uint40","internalType":"uint40"}]}],"outputs":[{"name":"streamId","type":"uint256","internalType":"uint256"}],"stateMutability":"nonpayable"},{"type":"function","name":"nextStreamId","inputs":[],"outputs":[{"name":"","type":"uint256","internalType":"uint256"}],"stateMutability":"view"},{"type":"function","name":"streams","inputs":[{"name":"","type":"uint256","internalType":"uint256"}],"outputs":[{"name":"sender","type":"address","internalType":"address"},{"name":"recipient","type":"address","internalType":"address"},{"name":"asset","type":"address","internalType":"contract IERC20"},{"name":"amount","type":"uint128","internalType":"uint128"},{"name":"startTime","type":"uint40","internalType":"uint40"},{"name":"duration","type":"uint40","internalType":"uint40"}],"stateMutability":"view"}],"bytecode":{"object":"0x6080604052348015600e575f5ffd5b506108408061001c5f395ff3fe608060405234801561000f575f5ffd5b506004361061003f575f3560e01c80631e99d5691461004357806364d60d91146100615780636756723814610096575b5f5ffd5b61004b6100c6565b604051610058919061042e565b60405180910390f35b61007b60048036038101906100769190610475565b6100cb565b60405161008d96959493929190610583565b60405180910390f35b6100b060048036038101906100ab9190610605565b61019d565b6040516100bd919061042e565b60405180910390f35b5f5481565b6001602052805f5260405f205f91509050805f015f9054906101000a900473ffffffffffffffffffffffffffffffffffffffff1690806001015f9054906101000a900473ffffffffffffffffffffffffffffffffffffffff1690806002015f9054906101000a900473ffffffffffffffffffffffffffffffffffffffff1690806003015f9054906101000a90046fffffffffffffffffffffffffffffffff16908060030160109054906101000a900464ffffffffff16908060030160159054906101000a900464ffffffffff16905086565b5f5f5f8154809291906101af9061065e565b9190505590506040518060c00160405280835f0160208101906101d291906106cf565b73ffffffffffffffffffffffffffffffffffffffff16815260200183606001602081019061020091906106cf565b73ffffffffffffffffffffffffffffffffffffffff1681526020018360a001602081019061022e9190610735565b73ffffffffffffffffffffffffffffffffffffffff16815260200183608001602081019061025c919061078a565b6fffffffffffffffffffffffffffffffff1681526020014264ffffffffff1681526020018360e001602081019061029391906107df565b64ffffffffff1681525060015f8381526020019081526020015f205f820151815f015f6101000a81548173ffffffffffffffffffffffffffffffffffffffff021916908373ffffffffffffffffffffffffffffffffffffffff1602179055506020820151816001015f6101000a81548173ffffffffffffffffffffffffffffffffffffffff021916908373ffffffffffffffffffffffffffffffffffffffff1602179055506040820151816002015f6101000a81548173ffffffffffffffffffffffffffffffffffffffff021916908373ffffffffffffffffffffffffffffffffffffffff1602179055506060820151816003015f6101000a8154816fffffffffffffffffffffffffffffffff02191690836fffffffffffffffffffffffffffffffff16021790555060808201518160030160106101000a81548164ffffffffff021916908364ffffffffff16021790555060a08201518160030160156101000a81548164ffffffffff021916908364ffffffffff160217905550905050919050565b5f819050919050565b61042881610416565b82525050565b5f6020820190506104415f83018461041f565b92915050565b5f5ffd5b61045481610416565b811461045e575f5ffd5b50565b5f8135905061046f8161044b565b92915050565b5f6020828403121561048a57610489610447565b5b5f61049784828501610461565b91505092915050565b5f73ffffffffffffffffffffffffffffffffffffffff82169050919050565b5f6104c9826104a0565b9050919050565b6104d9816104bf565b82525050565b5f819050919050565b5f6105026104fd6104f8846104a0565b6104df565b6104a0565b9050919050565b5f610513826104e8565b9050919050565b5f61052482610509565b9050919050565b6105348161051a565b82525050565b5f6fffffffffffffffffffffffffffffffff82169050919050565b61055e8161053a565b82525050565b5f64ffffffffff82169050919050565b61057d81610564565b82525050565b5f60c0820190506105965f8301896104d0565b6105a360208301886104d0565b6105b0604083018761052b565b6105bd6060830186610555565b6105ca6080830185610574565b6105d760a0830184610574565b979650505050505050565b5f5ffd5b5f61010082840312156105fc576105fb6105e2565b5b81905092915050565b5f610100828403121561061b5761061a610447565b5b5f610628848285016105e6565b91505092915050565b7f4e487b71000000000000000000000000000000000000000000000000000000005f52601160045260245ffd5b5f61066882610416565b91507fffffffffffffffffffffffffffffffffffffffffffffffffffffffffffffffff820361069a57610699610631565b5b600182019050919050565b6106ae816104bf565b81146106b8575f5ffd5b50565b5f813590506106c9816106a5565b92915050565b5f602082840312156106e4576106e3610447565b5b5f6106f1848285016106bb565b91505092915050565b5f610704826104bf565b9050919050565b610714816106fa565b811461071e575f5ffd5b50565b5f8135905061072f8161070b565b92915050565b5f6020828403121561074a57610749610447565b5b5f61075784828501610721565b91505092915050565b6107698161053a565b8114610773575f5ffd5b50565b5f8135905061078481610760565b92915050565b5f6020828403121561079f5761079e610447565b5b5f6107ac84828501610776565b91505092915050565b6107be81610564565b81146107c8575f5ffd5b50565b5f813590506107d9816107b5565b92915050565b5f602082840312156107f4576107f3610447565b5b5f610801848285016107cb565b9150509291505056fea2646970667358221220194b6673afbb3cebb0d8d0b69018879e770478b8e10279144d01dd1554768f2e64736f6c634300081c0033","linkReferences":{}},"methodIdentifiers":{"createWithDurations((address,bool,bool,address,uint128,address,uint40,uint40))":"67567238","nextStreamId()":"1e99d569","streams(uint256)":"64d60d91"},"id":47}