{"abi":[{"type":"constructor","inputs":[{"name":"name","type":"string","internalType":"string"},{"name":"symbol","type":"string","internalType":"string"},{"name":"_paymentToken","type":"address","internalType":"address"},{"name":"_sablier","type":"address","internalType":"address"},{"name":"_fullPrice","type":"uint256","internalType":"uint256"},{"name":"_discountedPrice","type":"uint256","internalType":"uint256"}],"stateMutability":"nonpayable"},{"type":"function","name":"approve","inputs":[{"name":"to","type":"address","internalType":"address"},{"name":"tokenId","type":"uint256","internalType":"uint256"}],"outputs":[],"stateMutability":"nonpayable"},{"type":"function","name":"balanceOf","inputs":[{"name":"owner","type":"address","internalType":"address"}],"outputs":[{"name":"","type":"uint256","internalType":"uint256"}],"stateMutability":"view"},{"type":"function","name":"createVestingStream","inputs":[],"outputs":[],"stateMutability":"nonpayable"},{"type":"function","name":"currentPhase","inputs":[],"outputs":[{"name":"","type":"uint8","internalType":"enum MultiUtilityNFT.MintPhase"}],"stateMutability":"view"},{"type":"function","name":"discountedPrice","inputs":[],"outputs":[{"name":"","type":"uint256","internalType":"uint256"}],"stateMutability":"view"},{"type":"function","name":"fullPrice","inputs":[],"outputs":[{"name":"","type":"uint256","internalType":"uint256"}],"stateMutability":"view"},{"type":"function","name":"getApproved","inputs":[{"name":"tokenId","type":"uint256","internalType":"uint256"}],"outputs":[{"name":"","type":"address","internalType":"address"}],"stateMutability":"view"},{"type":"function","name":"isApprovedForAll","inputs":[{"name":"owner","type":"address","internalType":"address"},{"name":"operator","type":"address","internalType":"address"}],"outputs":[{"name":"","type":"bool","internalType":"bool"}],"stateMutability":"view"},{"type":"function","name":"mintPhase1","inputs":[{"name":"proof","type":"bytes32[]","internalType":"bytes32[]"}],"outputs":[],"stateMutability":"nonpayable"},{"type":"function","name":"mintPhase2","inputs":[{"name":"proof","type":"bytes32[]","internalType":"bytes32[]"},{"name":"signature","type":"bytes","internalType":"bytes"}],"outputs":[],"stateMutability":"nonpayable"},{"type":"function","name":"mintPhase3","inputs":[],"outputs":[],"stateMutability":"nonpayable"},{"type":"function","name":"name","inputs":[],"outputs":[{"name":"","type":"string","internalType":"string"}],"stateMutability":"view"},{"type":"function","name":"owner","inputs":[],"outputs":[{"name":"","type":"address","internalType":"address"}],"stateMutability":"view"},{"type":"function","name":"ownerOf","inputs":[{"name":"tokenId","type":"uint256","internalType":"uint256"}],"outputs":[{"name":"","type":"address","internalType":"address"}],"stateMutability":"view"},{"type":"function","name":"paymentToken","inputs":[],"outputs":[{"name":"","type":"address","internalType":"contract IERC20"}],"stateMutability":"view"},{"type":"function","name":"phase1MerkleRoot","inputs":[],"outputs":[{"name":"","type":"bytes32","internalType":"bytes32"}],"stateMutability":"view"},{"type":"function","name":"phase2MerkleRoot","inputs":[],"outputs":[{"name":"","type":"bytes32","internalType":"bytes32"}],"stateMutability":"view"},{"type":"function","name":"renounceOwnership","inputs":[],"outputs":[],"stateMutability":"nonpayable"},{"type":"function","name":"sablier","inputs":[],"outputs":[{"name":"","type":"address","internalType":"contract ISablier"}],"stateMutability":"view"},{"type":"function","name":"safeTransferFrom","inputs":[{"name":"from","type":"address","internalType":"address"},{"name":"to","type":"address","internalType":"address"},{"name":"tokenId","type":"uint256","internalType":"uint256"}],"outputs":[],"stateMutability":"nonpayable"},{"type":"function","name":"safeTransferFrom","inputs":[{"name":"from","type":"address","internalType":"address"},{"name":"to","type":"address","internalType":"address"},{"name":"tokenId","type":"uint256","internalType":"uint256"},{"name":"data","type":"bytes","internalType":"bytes"}],"outputs":[],"stateMutability":"nonpayable"},{"type":"function","name":"setApprovalForAll","inputs":[{"name":"operator","type":"address","internalType":"address"},{"name":"approved","type":"bool","internalType":"bool"}],"outputs":[],"stateMutability":"nonpayable"},{"type":"function","name":"setMerkleRoots","inputs":[{"name":"root1","type":"bytes32","internalType":"bytes32"},{"name":"root2","type":"bytes32","internalType":"bytes32"}],"outputs":[],"stateMutability":"nonpayable"},{"type":"function","name":"setPhase","inputs":[{"name":"phase","type":"uint8","internalType":"enum MultiUtilityNFT.MintPhase"}],"outputs":[],"stateMutability":"nonpayable"},{"type":"function","name":"supportsInterface","inputs":[{"name":"interfaceId","type":"bytes4","internalType":"bytes4"}],"outputs":[{"name":"","type":"bool","internalType":"bool"}],"stateMutability":"view"},{"type":"function","name":"symbol","inputs":[],"outputs":[{"name":"","type":"string","internalType":"string"}],"stateMutability":"view"},{"type":"function","name":"tokenURI","inputs":[{"name":"tokenId","type":"uint256","internalType":"uint256"}],"outputs":[{"name":"","type":"string","internalType":"string"}],"stateMutability":"view"},{"type":"function","name":"transferFrom","inputs":[{"name":"from","type":"address","internalType":"address"},{"name":"to","type":"address","internalType":"address"},{"name":"tokenId","type":"uint256","internalType":"uint256"}],"outputs":[],"stateMutability":"nonpayable"},{"type":"function","name":"transferOwnership","inputs":[{"name":"newOwner","type":"address","internalType":"address"}],"outputs":[],"stateMutability":"nonpayable"},{"type":"function","name":"usedSignatures","inputs":[{"name":"","type":"bytes32","internalType":"bytes32"}],"outputs":[{"name":"","type":"bool","internalType":"bool"}],"stateMutability":"view"},{"type":"event","name":"Approval","inputs":[{"name":"owner","type":"address","indexed":true,"internalType":"address"},{"name":"approved","type":"address","indexed":true,"internalType":"address"},{"name":"tokenId","type":"uint256","indexed":true,"internalType":"uint256"}],"anonymous":false},{"type":"event","name":"ApprovalForAll","inputs":[{"name":"owner","type":"address","indexed":true,"internalType":"address"},{"name":"operator","type":"address","indexed":true,"internalType":"address"},{"name":"approved","type":"bool","indexed":false,"internalType":"bool"}],"anonymous":false},{"type":"event","name":"Minted","inputs":[{"name":"user","type":"address","indexed":true,"internalType":"address"},{"name":"tokenId","type":"uint256","indexed":false,"internalType":"uint256"},{"name":"phase","type":"uint8","indexed":false,"internalType":"enum MultiUtilityNFT.MintPhase"},{"name":"price","type":"uint256","indexed":false,"internalType":"uint256"}],"anonymous":false},{"type":"event","name":"OwnershipTransferred","inputs":[{"name":"previousOwner","type":"address","indexed":true,"internalType":"address"},{"name":"newOwner","type":"address","indexed":true,"internalType":"address"}],"anonymous":false},{"type":"event","name":"Transfer","inputs":[{"name":"from","type":"address","indexed":true,"internalType":"address"},{"name":"to","type":"address","indexed":true,"internalType":"address"},{"name":"tokenId","type":"uint256","indexed":true,"internalType":"uint256"}],"anonymous":false},{"type":"error","name":"ECDSAInvalidSignature","inputs":[]},{"type":"error","name":"ECDSAInvalidSignatureLength","inputs":[{"name":"length","type":"uint256","internalType":"uint256"}]},{"type":"error","name":"ECDSAInvalidSignatureS","inputs":[{"name":"s","type":"bytes32","internalType":"bytes32"}]},{"type":"error","name":"ERC721IncorrectOwner","inputs":[{"name":"sender","type":"address","internalType":"address"},{"name":"tokenId","type":"uint256","internalType":"uint256"},{"name":"owner","type":"address","internalType":"address"}]},{"type":"error","name":"ERC721InsufficientApproval","inputs":[{"name":"operator","type":"address","internalType":"address"},{"name":"tokenId","type":"uint256","internalType":"uint256"}]},{"type":"error","name":"ERC721InvalidApprover","inputs":[{"name":"approver","type":"address","internalType":"address"}]},{"type":"error","name":"ERC721InvalidOperator","inputs":[{"name":"operator","type":"address","internalType":"address"}]},{"type":"error","name":"ERC721InvalidOwner","inputs":[{"name":"owner","type":"address","internalType":"address"}]},{"type":"error","name":"ERC721InvalidReceiver","inputs":[{"name":"receiver","type":"address","internalType":"address"}]},{"type":"error","name":"ERC721InvalidSender","inputs":[{"name":"sender","type":"address","internalType":"address"}]},{"type":"error","name":"ERC721NonexistentToken","inputs":[{"name":"tokenId","type":"uint256","internalType":"uint256"}]},{"type":"error","name":"OwnableInvalidOwner","inputs":[{"name":"owner","type":"address","internalType":"address"}]},{"type":"error","name":"OwnableUnauthorizedAccount","inputs":[{"name":"account","type":"address","internalType":"address"}]},{"type":"error","name":"ReentrancyGuardReentrantCall","inputs":[]}],"bytecode":{"object":"0x60806040526001600f55348015610014575f5ffd5b506040516121ad3803806121ad833981016040819052610033916101d7565b3386865f61004183826102f3565b50600161004e82826102f3565b5050506001600160a01b03811661007e57604051631e4fbdf760e01b81525f600482015260240160405180910390fd5b610087816100ce565b506001600755600b80546001600160a01b039586166001600160a01b031991821617909155600c805494909516931692909217909255600d91909155600e55506103ad9050565b600680546001600160a01b038381166001600160a01b0319831681179093556040519116919082907f8be0079c531659141344cd1fd0a4f28419497f9722a3daafe3b4186f6b6457e0905f90a35050565b634e487b7160e01b5f52604160045260245ffd5b5f82601f830112610142575f5ffd5b81516001600160401b0381111561015b5761015b61011f565b604051601f8201601f19908116603f011681016001600160401b03811182821017156101895761018961011f565b6040528181528382016020018510156101a0575f5ffd5b8160208501602083015e5f918101602001919091529392505050565b80516001600160a01b03811681146101d2575f5ffd5b919050565b5f5f5f5f5f5f60c087890312156101ec575f5ffd5b86516001600160401b03811115610201575f5ffd5b61020d89828a01610133565b602089015190975090506001600160401b0381111561022a575f5ffd5b61023689828a01610133565b955050610245604088016101bc565b9350610253606088016101bc565b608088015160a090980151969995985093969395939492505050565b600181811c9082168061028357607f821691505b6020821081036102a157634e487b7160e01b5f52602260045260245ffd5b50919050565b601f8211156102ee57805f5260205f20601f840160051c810160208510156102cc5750805b601f840160051c820191505b818110156102eb575f81556001016102d8565b50505b505050565b81516001600160401b0381111561030c5761030c61011f565b6103208161031a845461026f565b846102a7565b6020601f821160018114610352575f831561033b5750848201515b5f19600385901b1c1916600184901b1784556102eb565b5f84815260208120601f198516915b828110156103815787850151825560209485019460019092019101610361565b508482101561039e57868401515f19600387901b60f8161c191681555b50505050600190811b01905550565b611df3806103ba5f395ff3fe608060405234801561000f575f5ffd5b50600436106101d1575f3560e01c806370a08231116100fe578063b88d4fde1161009e578063e985e9c51161006e578063e985e9c5146103bd578063edd634b8146103d0578063f2fde38b146103d9578063f978fd61146103ec575f5ffd5b8063b88d4fde1461037b578063c03afb591461038e578063c8788134146103a1578063c87b56dd146103aa575f5ffd5b806395d89b41116100d957806395d89b411461033a57806397119780146103425780639a48eb5114610355578063a22cb46514610368575f5ffd5b806370a082311461030e578063715018a6146103215780638da5cb5b14610329575f5ffd5b80633013ce2911610174578063482879aa11610144578063482879aa146102d7578063484064a5146102ea5780635b440435146102f25780636352211e146102fb575f5ffd5b80633013ce2914610287578063326409631461029a57806342842e0e146102ad578063432baad3146102c0575f5ffd5b806306fdde03116101af57806306fdde0314610221578063081812fc14610236578063095ea7b31461026157806323b872dd14610274575f5ffd5b806301ffc9a7146101d557806304e06758146101fd578063055ad42e14610207575b5f5ffd5b6101e86101e336600461186e565b61040e565b60405190151581526020015b60405180910390f35b61020561045f565b005b6008546102149060ff1681565b6040516101f491906118bd565b610229610555565b6040516101f491906118f9565b61024961024436600461190b565b6105e4565b6040516001600160a01b0390911681526020016101f4565b61020561026f36600461193d565b61060b565b610205610282366004611965565b61061a565b600b54610249906001600160a01b031681565b6102056102a83660046119e7565b6106a3565b6102056102bb366004611965565b6107c2565b6102c960095481565b6040519081526020016101f4565b600c54610249906001600160a01b031681565b6102056107e1565b6102c9600a5481565b61024961030936600461190b565b610981565b6102c961031c366004611a26565b61098b565b6102056109d0565b6006546001600160a01b0316610249565b6102296109e1565b610205610350366004611ade565b6109f0565b610205610363366004611b47565b610ccd565b610205610376366004611b74565b610ce0565b610205610389366004611ba9565b610ceb565b61020561039c366004611c0d565b610d03565b6102c9600e5481565b6102296103b836600461190b565b610d32565b6101e86103cb366004611c2b565b610da3565b6102c9600d5481565b6102056103e7366004611a26565b610dd0565b6101e86103fa36600461190b565b60106020525f908152604090205460ff1681565b5f6001600160e01b031982166380ac58cd60e01b148061043e57506001600160e01b03198216635b5e139f60e01b145b8061045957506301ffc9a760e01b6001600160e01b03198316145b92915050565b610467610e0d565b600260085460ff16600281111561048057610480611889565b146104c05760405162461bcd60e51b815260206004820152600b60248201526a4e6f74205068617365203360a81b60448201526064015b60405180910390fd5b600b54600d546040516323b872dd60e01b815233600482015230602482015260448101919091526001600160a01b03909116906323b872dd906064016020604051808303815f875af1158015610518573d5f5f3e3d5ffd5b505050506040513d601f19601f8201168201806040525081019061053c9190611c5c565b5061054933600d54610e37565b6105536001600755565b565b60605f805461056390611c77565b80601f016020809104026020016040519081016040528092919081815260200182805461058f90611c77565b80156105da5780601f106105b1576101008083540402835291602001916105da565b820191905f5260205f20905b8154815290600101906020018083116105bd57829003601f168201915b5050505050905090565b5f6105ee82610eaa565b505f828152600460205260409020546001600160a01b0316610459565b610616828233610ee2565b5050565b6001600160a01b03821661064357604051633250574960e11b81525f60048201526024016104b7565b5f61064f838333610eef565b9050836001600160a01b0316816001600160a01b03161461069d576040516364283d7b60e01b81526001600160a01b03808616600483015260248201849052821660448201526064016104b7565b50505050565b6106ab610e0d565b5f60085460ff1660028111156106c3576106c3611889565b146106fe5760405162461bcd60e51b815260206004820152600b60248201526a4e6f74205068617365203160a81b60448201526064016104b7565b6040516001600160601b03193360601b1660208201525f906034016040516020818303038152906040528051906020012090506107718383808060200260200160405190810160405280939291908181526020018383602002808284375f92019190915250506009549150849050610fe1565b6107ad5760405162461bcd60e51b815260206004820152600d60248201526c24b73b30b634b210383937b7b360991b60448201526064016104b7565b6107b7335f610e37565b506106166001600755565b6107dc83838360405180602001604052805f815250610ceb565b505050565b6107e9610ff6565b600b546040516370a0823160e01b81523060048201525f916001600160a01b0316906370a0823190602401602060405180830381865afa15801561082f573d5f5f3e3d5ffd5b505050506040513d601f19601f820116820180604052508101906108539190611caf565b600b54600c5460405163095ea7b360e01b81526001600160a01b03918216600482015260248101849052929350169063095ea7b3906044016020604051808303815f875af11580156108a7573d5f5f3e3d5ffd5b505050506040513d601f19601f820116820180604052508101906108cb9190611c5c565b50600c546001600160a01b031663cc1b4bf66108ef6006546001600160a01b031690565b600b5484906001600160a01b03164261090c816301e13380611cda565b6040516001600160e01b031960e088901b1681526001600160a01b03958616600482015260248101949094529390911660448301526064820152608481019190915260a4015f604051808303815f87803b158015610968575f5ffd5b505af115801561097a573d5f5f3e3d5ffd5b5050505050565b5f61045982610eaa565b5f6001600160a01b0382166109b5576040516322718ad960e21b81525f60048201526024016104b7565b506001600160a01b03165f9081526003602052604090205490565b6109d8610ff6565b6105535f611023565b60606001805461056390611c77565b6109f8610e0d565b600160085460ff166002811115610a1157610a11611889565b14610a4c5760405162461bcd60e51b815260206004820152600b60248201526a2737ba10283430b9b2901960a91b60448201526064016104b7565b6040516001600160601b03193360601b1660208201525f90603401604051602081830303815290604052805190602001209050610abf8484808060200260200160405190810160405280939291908181526020018383602002808284375f9201919091525050600a549150849050610fe1565b610afb5760405162461bcd60e51b815260206004820152600d60248201526c24b73b30b634b210383937b7b360991b60448201526064016104b7565b604080516001600160601b03193360601b1660208083019190915282518083036014018152603490920190925280519101207f19457468657265756d205369676e6564204d6573736167653a0a3332000000005f908152601c829052603c812090610b668386611074565b9050610b7a6006546001600160a01b031690565b6001600160a01b0316816001600160a01b031614610bce5760405162461bcd60e51b8152602060048201526011602482015270496e76616c6964207369676e617475726560781b60448201526064016104b7565b5f8381526010602052604090205460ff1615610c1f5760405162461bcd60e51b815260206004820152601060248201526f14da59db985d1d5c99481c995d5cd95960821b60448201526064016104b7565b5f8381526010602052604090819020805460ff19166001179055600b54600e5491516323b872dd60e01b815233600482015230602482015260448101929092526001600160a01b0316906323b872dd906064016020604051808303815f875af1158015610c8e573d5f5f3e3d5ffd5b505050506040513d601f19601f82011682018060405250810190610cb29190611c5c565b50610cbf33600e54610e37565b505050506107dc6001600755565b610cd5610ff6565b600991909155600a55565b61061633838361109c565b610cf684848461061a565b61069d338585858561113a565b610d0b610ff6565b6008805482919060ff19166001836002811115610d2a57610d2a611889565b021790555050565b6060610d3d82610eaa565b505f610d5360408051602081019091525f815290565b90505f815111610d715760405180602001604052805f815250610d9c565b80610d7b84611261565b604051602001610d8c929190611d04565b6040516020818303038152906040525b9392505050565b6001600160a01b039182165f90815260056020908152604080832093909416825291909152205460ff1690565b610dd8610ff6565b6001600160a01b038116610e0157604051631e4fbdf760e01b81525f60048201526024016104b7565b610e0a81611023565b50565b600260075403610e3057604051633ee5aeb560e01b815260040160405180910390fd5b6002600755565b600f80545f9182610e4783611d18565b919050559050610e5783826112f1565b6008546040516001600160a01b038516917f0fcee5463734b554d0accfca29a4811ecd45e6c12b1cee0cb22d8d8eb3be1c3391610e9d91859160ff909116908790611d30565b60405180910390a2505050565b5f818152600260205260408120546001600160a01b03168061045957604051637e27328960e01b8152600481018490526024016104b7565b6107dc838383600161130a565b5f828152600260205260408120546001600160a01b0390811690831615610f1b57610f1b81848661140e565b6001600160a01b03811615610f5557610f365f855f5f61130a565b6001600160a01b0381165f90815260036020526040902080545f190190555b6001600160a01b03851615610f83576001600160a01b0385165f908152600360205260409020805460010190555b5f8481526002602052604080822080546001600160a01b0319166001600160a01b0389811691821790925591518793918516917fddf252ad1be2c89b69c2b068fc378daa952ba7f163c4a11628f55a4df523b3ef91a4949350505050565b5f82610fed8584611472565b14949350505050565b6006546001600160a01b031633146105535760405163118cdaa760e01b81523360048201526024016104b7565b600680546001600160a01b038381166001600160a01b0319831681179093556040519116919082907f8be0079c531659141344cd1fd0a4f28419497f9722a3daafe3b4186f6b6457e0905f90a35050565b5f5f5f5f61108286866114b4565b92509250925061109282826114fd565b5090949350505050565b6001600160a01b0382166110ce57604051630b61174360e31b81526001600160a01b03831660048201526024016104b7565b6001600160a01b038381165f81815260056020908152604080832094871680845294825291829020805460ff191686151590811790915591519182527f17307eab39ab6107e8899845ad3d59bd9653f200f220920489ca2b5937696c31910160405180910390a3505050565b6001600160a01b0383163b1561097a57604051630a85bd0160e11b81526001600160a01b0384169063150b7a029061117c908890889087908790600401611d52565b6020604051808303815f875af19250505080156111b6575060408051601f3d908101601f191682019092526111b391810190611d8e565b60015b61121d573d8080156111e3576040519150601f19603f3d011682016040523d82523d5f602084013e6111e8565b606091505b5080515f0361121557604051633250574960e11b81526001600160a01b03851660048201526024016104b7565b805181602001fd5b6001600160e01b03198116630a85bd0160e11b1461125957604051633250574960e11b81526001600160a01b03851660048201526024016104b7565b505050505050565b60605f61126d836115b5565b60010190505f8167ffffffffffffffff81111561128c5761128c611a3f565b6040519080825280601f01601f1916602001820160405280156112b6576020820181803683370190505b5090508181016020015b5f19016f181899199a1a9b1b9c1cb0b131b232b360811b600a86061a8153600a85049450846112c057509392505050565b610616828260405180602001604052805f81525061168c565b808061131e57506001600160a01b03821615155b156113df575f61132d84610eaa565b90506001600160a01b038316158015906113595750826001600160a01b0316816001600160a01b031614155b801561136c575061136a8184610da3565b155b156113955760405163a9fbf51f60e01b81526001600160a01b03841660048201526024016104b7565b81156113dd5783856001600160a01b0316826001600160a01b03167f8c5be1e5ebec7d5bd14f71427d1e84f3dd0314c0f7b2291e5b200ac8c7c3b92560405160405180910390a45b505b50505f90815260046020526040902080546001600160a01b0319166001600160a01b0392909216919091179055565b6114198383836116a3565b6107dc576001600160a01b03831661144757604051637e27328960e01b8152600481018290526024016104b7565b60405163177e802f60e01b81526001600160a01b0383166004820152602481018290526044016104b7565b5f81815b84518110156114ac576114a28286838151811061149557611495611da9565b6020026020010151611707565b9150600101611476565b509392505050565b5f5f5f83516041036114eb576020840151604085015160608601515f1a6114dd88828585611730565b9550955095505050506114f6565b505081515f91506002905b9250925092565b5f82600381111561151057611510611889565b03611519575050565b600182600381111561152d5761152d611889565b0361154b5760405163f645eedf60e01b815260040160405180910390fd5b600282600381111561155f5761155f611889565b036115805760405163fce698f760e01b8152600481018290526024016104b7565b600382600381111561159457611594611889565b03610616576040516335e2f38360e21b8152600481018290526024016104b7565b5f8072184f03e93ff9f4daa797ed6e38ed64bf6a1f0160401b83106115f35772184f03e93ff9f4daa797ed6e38ed64bf6a1f0160401b830492506040015b6d04ee2d6d415b85acef8100000000831061161f576d04ee2d6d415b85acef8100000000830492506020015b662386f26fc10000831061163d57662386f26fc10000830492506010015b6305f5e1008310611655576305f5e100830492506008015b612710831061166957612710830492506004015b6064831061167b576064830492506002015b600a83106104595760010192915050565b61169683836117f8565b6107dc335f85858561113a565b5f6001600160a01b038316158015906116ff5750826001600160a01b0316846001600160a01b031614806116dc57506116dc8484610da3565b806116ff57505f828152600460205260409020546001600160a01b038481169116145b949350505050565b5f818310611721575f828152602084905260409020610d9c565b505f9182526020526040902090565b5f80807f7fffffffffffffffffffffffffffffff5d576e7357a4501ddfe92f46681b20a084111561176957505f915060039050826117ee565b604080515f808252602082018084528a905260ff891692820192909252606081018790526080810186905260019060a0016020604051602081039080840390855afa1580156117ba573d5f5f3e3d5ffd5b5050604051601f1901519150506001600160a01b0381166117e557505f9250600191508290506117ee565b92505f91508190505b9450945094915050565b6001600160a01b03821661182157604051633250574960e11b81525f60048201526024016104b7565b5f61182d83835f610eef565b90506001600160a01b038116156107dc576040516339e3563760e11b81525f60048201526024016104b7565b6001600160e01b031981168114610e0a575f5ffd5b5f6020828403121561187e575f5ffd5b8135610d9c81611859565b634e487b7160e01b5f52602160045260245ffd5b600381106118b957634e487b7160e01b5f52602160045260245ffd5b9052565b60208101610459828461189d565b5f81518084528060208401602086015e5f602082860101526020601f19601f83011685010191505092915050565b602081525f610d9c60208301846118cb565b5f6020828403121561191b575f5ffd5b5035919050565b80356001600160a01b0381168114611938575f5ffd5b919050565b5f5f6040838503121561194e575f5ffd5b61195783611922565b946020939093013593505050565b5f5f5f60608486031215611977575f5ffd5b61198084611922565b925061198e60208501611922565b929592945050506040919091013590565b5f5f83601f8401126119af575f5ffd5b50813567ffffffffffffffff8111156119c6575f5ffd5b6020830191508360208260051b85010111156119e0575f5ffd5b9250929050565b5f5f602083850312156119f8575f5ffd5b823567ffffffffffffffff811115611a0e575f5ffd5b611a1a8582860161199f565b90969095509350505050565b5f60208284031215611a36575f5ffd5b610d9c82611922565b634e487b7160e01b5f52604160045260245ffd5b5f82601f830112611a62575f5ffd5b813567ffffffffffffffff811115611a7c57611a7c611a3f565b604051601f8201601f19908116603f0116810167ffffffffffffffff81118282101715611aab57611aab611a3f565b604052818152838201602001851015611ac2575f5ffd5b816020850160208301375f918101602001919091529392505050565b5f5f5f60408486031215611af0575f5ffd5b833567ffffffffffffffff811115611b06575f5ffd5b611b128682870161199f565b909450925050602084013567ffffffffffffffff811115611b31575f5ffd5b611b3d86828701611a53565b9150509250925092565b5f5f60408385031215611b58575f5ffd5b50508035926020909101359150565b8015158114610e0a575f5ffd5b5f5f60408385031215611b85575f5ffd5b611b8e83611922565b91506020830135611b9e81611b67565b809150509250929050565b5f5f5f5f60808587031215611bbc575f5ffd5b611bc585611922565b9350611bd360208601611922565b925060408501359150606085013567ffffffffffffffff811115611bf5575f5ffd5b611c0187828801611a53565b91505092959194509250565b5f60208284031215611c1d575f5ffd5b813560038110610d9c575f5ffd5b5f5f60408385031215611c3c575f5ffd5b611c4583611922565b9150611c5360208401611922565b90509250929050565b5f60208284031215611c6c575f5ffd5b8151610d9c81611b67565b600181811c90821680611c8b57607f821691505b602082108103611ca957634e487b7160e01b5f52602260045260245ffd5b50919050565b5f60208284031215611cbf575f5ffd5b5051919050565b634e487b7160e01b5f52601160045260245ffd5b8082018082111561045957610459611cc6565b5f81518060208401855e5f93019283525090919050565b5f6116ff611d128386611ced565b84611ced565b5f60018201611d2957611d29611cc6565b5060010190565b83815260608101611d44602083018561189d565b826040830152949350505050565b6001600160a01b03858116825284166020820152604081018390526080606082018190525f90611d84908301846118cb565b9695505050505050565b5f60208284031215611d9e575f5ffd5b8151610d9c81611859565b634e487b7160e01b5f52603260045260245ffdfea26469706673582212200624fcf86a2fbd0d2ce7d2a5d7d9589653fd862f1dc3d3b647c40d68698af7eb64736f6c634300081c0033","linkReferences":{}},"methodIdentifiers":{"approve(address,uint256)":"095ea7b3","balanceOf(address)":"70a08231","createVestingStream()":"484064a5","currentPhase()":"055ad42e","discountedPrice()":"c8788134","fullPrice()":"edd634b8","getApproved(uint256)":"081812fc","isApprovedForAll(address,address)":"e985e9c5","mintPhase1(bytes32[])":"32640963","mintPhase2(bytes32[],bytes)":"97119780","mintPhase3()":"04e06758","name()":"06fdde03","owner()":"8da5cb5b","ownerOf(uint256)":"6352211e","paymentToken()":"3013ce29","phase1MerkleRoot()":"432baad3","phase2MerkleRoot()":"5b440435","renounceOwnership()":"715018a6","sablier()":"482879aa","safeTransferFrom(address,address,uint256)":"42842e0e","safeTransferFrom(address,address,uint256,bytes)":"b88d4fde","setApprovalForAll(address,bool)":"a22cb465","setMerkleRoots(bytes32,bytes32)":"9a48eb51","setPhase(uint8)":"c03afb59","supportsInterface(bytes4)":"01ffc9a7","symbol()":"95d89b41","tokenURI(uint256)":"c87b56dd","transferFrom(address,address,uint256)":"23b872dd","transferOwnership(address)":"f2fde38b","usedSignatures(bytes32)":"f978fd61"},"id":21}